:020000040800F2
:10000000002800200D0F00085D0F00085D0F00089C
:100010005D0F00085D0F00085D0F00080000000084
:100020000000000000000000000000005D0F00085C
:100030005D0F0008000000005D0F00085D0F000864
:100040005D0F00085D0F00085D0F00085D0F0008E0
:100050005D0F00085D0F00085D0F00085D0F0008D0
:100060005D0F00085D0F00085D0F00085D0F0008C0
:100070005D0F00085D0F00085D0F00085D0F0008B0
:100080005D0F00085D0F00085D0F00085D0F0008A0
:100090005D0F00085D0F00085D0F00085D0F000890
:1000A0005D0F00085D0F00085D0F00085D0F000880
:1000B0005D0F00085D0F00085D0F00085D0F000870
:1000C0005D0F00085D0F00085D0F0008C10A000801
:1000D000190B0008250E0008390E00084D0E000807
:1000E0005D0F00085D0F0008000000005D0F0008B4
:1000F0005D0F00085D0F00085D0F00085D0F000830
:100100005D0F00085D0F00085D0F00085D0F00081F
:100110005D0F00085D0F00085D0F00085D0F00080F
:100120005D0F00085D0F00085D0F00085D0F0008FF
:1001300010B5054C237833B9044B13B10448AFF321
:1001400000800123237010BD1C000020000000006F
:10015000A80F000808B5034B1BB103490348AFF3D0
:10016000008008BD0000000020000020A80F00084B
:1001700080B485B000AF78600023FB600BE0002303
:10018000BB6002E0BB680133BB60BB68FE2BF9D9E2
:10019000FB680133FB60FA687B689A42EFD300BFCB
:1001A0001437BD4680BC704780B584B000AF78601E
:1001B0001420FFF7DDFF7B681B78002B1CD1002388
:1001C000FB6015E0474B04229A70464B0122DA701F
:1001D0007B68FA68083233F81220424B1A807B6839
:1001E0005B684049184600F0EDFAFB680133FB609C
:1001F000FB68072BE6DD1BE00023BB6015E07B6896
:10020000BA68083233F81220364B1A80354B042274
:100210009A70344B0122DA707B685B68314918466A
:1002200000F0D0FABB680133BB60BB68032BE6DD8E
:100230002C4B04229A707B689A892A4B1A80294B8E
:100240000122DA707B689B682649184600F0BAFAEA
:100250007B6898687B689B890022194600F02EFB1A
:10026000204B04229A707B68DA891E4B1A801D4B42
:100270000122DA707B689B681A49184600F0A2FADE
:100280007B6898687B68DB890022194600F016FBC2
:100290000F20FFF76DFF786800F0F8F97B681B7896
:1002A000002B03D17968382000F01EF87B681B789A
:1002B000012B07D17968022000F016F87968282010
:1002C00000F012F87968062000F00EF879688020B6
:1002D00000F00AF879680F2000F006F800BF103728
:1002E000BD4680BDA400002080B582B000AF0346AB
:1002F0003960FB713B681B78002B15D13B685B684C
:10030000FA7992B21146184600F0F6FA3B689868FE
:100310003B68DB890022194600F0D0FA0120FFF784
:1003200027FF386800F0BEF93B681B78012B76D1B7
:100330003B6898683B68DB890022194600F0BEFAEA
:100340003B6858683B68198AFB791B09DBB203F0EC
:100350000103DBB21A4600F0B1FA3B6858683B680B
:10036000598AFB795B09DBB203F00103DBB21A4661
:1003700000F0A4FA3B6858683B68998AFB799B09AE
:10038000DBB203F00103DBB21A4600F097FA3B68D8
:1003900058683B68D98AFB79DB09DBB21A4600F062
:1003A0008DFA0120FFF7E4FE386800F07BF93B6826
:1003B00058683B68198AFB7903F00103DBB21A46DF
:1003C00000F07CFA3B6858683B68598AFB795B0807
:1003D000DBB203F00103DBB21A4600F06FFA3B68B0
:1003E00058683B68998AFB799B08DBB203F00103EC
:1003F000DBB21A4600F062FA3B6858683B68D98A5B
:10040000FB79DB08DBB203F00103DBB21A4600F034
:1004100055FA0120FFF7ACFE386800F043F900BF41
:100420000837BD4680BD80B582B000AF0346396055
:10043000FB713B681B78002B15D13B685B68FA7930
:1004400092B21146184600F057FA3B6898683B682C
:10045000DB890122194600F031FA0120FFF788FEFE
:10046000386800F01FF93B681B78012B76D13B6898
:1004700098683B68DB890122194600F01FFA3B6847
:1004800058683B68198AFB791B09DBB203F001034A
:10049000DBB21A4600F012FA3B6858683B68598A8A
:1004A000FB795B09DBB203F00103DBB21A4600F013
:1004B00005FA3B6858683B68998AFB799B09DBB26F
:1004C00003F00103DBB21A4600F0F8F93B68586804
:1004D0003B68D98AFB79DB09DBB21A4600F0EEF9FA
:1004E0000120FFF745FE386800F0DCF83B685868EB
:1004F0003B68198AFB7903F00103DBB21A4600F06E
:10050000DDF93B6858683B68598AFB795B08DBB2C8
:1005100003F00103DBB21A4600F0D0F93B685868DB
:100520003B68998AFB799B08DBB203F00103DBB2DD
:100530001A4600F0C3F93B6858683B68D98AFB79D2
:10054000DB08DBB203F00103DBB21A4600F0B6F9B8
:100550000120FFF70DFE386800F0A4F800BF08374F
:10056000BD4680BD80B584B000AF7860396000239F
:10057000FB6039E0FB680133FB607B685A1C7A60E2
:100580001B7839681846FFF74EFFFB68102B05D122
:100590003A680021012000F02FF80CE0FB68402BA6
:1005A00009D1386800F072F83A680021002000F0A4
:1005B00023F80023FB603B685B78012B03D03B688A
:1005C0005B78022B10D1FB68202B05D13A68002103
:1005D000022000F011F807E0FB68302B04D13A68E4
:1005E0000021032000F008F87B681B78002BC1D1A4
:1005F00000BF1037BD4680BD80B582B000AF034656
:100600003A60FB710B46BB71FB79002B0AD1BB79B9
:100610000F2B14D8BB79803BDBB239681846FFF743
:1006200063FE0CE0FB79012B09D1BB790F2B06D8B7
:10063000BB79403BDBB239681846FFF755FE3B6893
:100640005B78012B03D03B685B78022B1AD1FB79D6
:10065000022B0AD1BB790F2B14D8BB79703BDBB2CC
:1006600039681846FFF740FE0CE0FB79032B09D1EF
:10067000BB790F2B06D8BB79303BDBB23968184603
:10068000FFF732FE00BF0837BD4680BD80B582B09F
:1006900000AF786079680120FFF726FE00BF0837B9
:1006A000BD4680BD80B582B000AF78607B68986839
:1006B0007B689B890122194600F000F93220FFF780
:1006C00057FD7B6898687B689B890022194600F07B
:1006D000F5F800BF0837BD4680BD80B485B000AFD7
:1006E0000346FB800023FB73FB88802B49D0802BC3
:1006F00011DC082B39D0082B06DC022B2FD0042B61
:1007000030D0012B28D057E0202B34D0402B35D0CF
:10071000102B2DD050E0B3F5006F3ED0B3F5006F35
:1007200009DCB3F5007F32D0B3F5806F32D0B3F57A
:10073000807F29D040E0B3F5005F34D0B3F5005F8F
:1007400003DCB3F5805F2BD036E0B3F5804F2DD0BE
:10075000B3F5004F2DD02FE00023FB732CE00423D2
:10076000FB7329E00823FB7326E00C23FB7323E0D3
:100770001023FB7320E01423FB731DE01823FB738D
:100780001AE01C23FB7317E00023FB7314E004231F
:10079000FB7311E00823FB730EE00C23FB730BE0EB
:1007A0001023FB7308E01423FB7305E01823FB738D
:1007B00002E01C23FB7300BFFB7B18461437BD46C9
:1007C00080BC704780B586B000AF78603960002388
:1007D0003B613B681B88FF2B01D87B6801E07B688D
:1007E00004333B613B681B881846FFF776FF0346DE
:1007F000FB733B691B68FA7B0F2101FA02F2D243BB
:100800001A403B691A600023FB753B689B78072BF5
:100810000BD03B689B78062B07D03B689B78042B5A
:1008200003D03B689B78052B0ED13B689B78043B3B
:100830009B005AB23B68DB785BB213435BB2DBB21E
:1008400003F00F03FB752CE03B689B78012B03D072
:100850003B689B78002B07D13B689B789B00DBB201
:1008600003F00F03FB751CE03B689B78102B02D153
:100870000423FB7515E00823FB753B689B78022B6E
:1008800007D17B68DB683A6812881A437B68DA60B4
:1008900007E07B68DB683A681288D2431A407B68BD
:1008A000DA603B691B68F97DFA7B01FA02F21A43B0
:1008B0003B691A6000BF1837BD4680BD80B483B065
:1008C00000AF78600B467B8013467B707B78002BF3
:1008D00006D07B68DA687B881A437B68DA6006E0BA
:1008E0007B68DA687B88DB431A407B68DA6000BF8C
:1008F0000C37BD4680BC704780B483B000AF7860D1
:100900000B467B807A887B68DA6000BF0C37BD4677
:1009100080BC704780B483B000AF0346FB71FB79A5
:100920001F2B0AD8194B1B68FA79012101FA02F230
:100930001146164A0B43136022E0FB791F2B0ED998
:10094000FB793F2B0BD8114B5B68FA79203A0121D8
:1009500001FA02F211460D4A0B43536010E0FB7995
:100960003F2B0DD9FB79432B0AD8084B9B68FA79AA
:10097000203A012101FA02F21146044A0B43936026
:1009800000BF0C37BD4680BC704700BF00E100E0EF
:1009900080B483B000AF0D4B5B689B08DBB203F003
:1009A0000303FB71FB79012B05D0022B05D0002B33
:1009B00005D1074B04E0074B02E0064B00E00023A3
:1009C00018460C37BD4680BC704700BF001002407F
:1009D00000127A000024F40080B500AF00F024F883
:1009E0000146054B5B681B0A03F00703034AD35C0F
:1009F00021FA03F3184680BD0010024000000020D9
:100A000080B500AF00F010F80146054B5B68DB0ACB
:100A100003F00703034AD35C21FA03F3184680BDB1
:100A2000001002400000002080B500AFFFF7B0FFCB
:100A30000146054B5B681B0903F00F03034AD35CB7
:100A400021FA03F3184680BD001002400800002080
:100A500080B483B000AF03460A46FB711346BB71F6
:100A6000FB79012B0FD0022B18D0002B00D020E0F7
:100A7000124BDB69BA79012101FA02F211460F4AE1
:100A80000B43D36115E00D4B9B69BA79012101FA43
:100A900002F21146094A0B4393610AE0074B5B6976
:100AA000BA79012101FA02F21146044A0B4353615B
:100AB00000BF00BF0C37BD4680BC7047001002402D
:100AC00080B582B000AF124B9B685B0803F0010356
:100AD000DAB23B7962F300033B710D4B9B6803F084
:100AE0000103DAB23B7962F341033B71084B9B6827
:100AF0001B0903F00103DAB23B7962F382033B7115
:100B0000044B5B693879984700BF0837BD4680BD04
:100B1000003001403800002080B582B000AF124B99
:100B20009B685B0803F00103DAB23B7962F30003D0
:100B30003B710D4B9B6803F00103DAB23B7962F322
:100B400041033B71084B9B681B0903F00103DAB2B8
:100B50003B7962F382033B71044BDB6A3879984737
:100B600000BF0837BD4680BD003800403800002077
:100B7000B0B584B000AF786039603B68594A9342A1
:100B80000BD1594A7B6814461D460FCD0FC42B6804
:100B900023600E210120FFF75BFF3B68534A93421D
:100BA0000DD1514B7A6803F1140415460FCD0FC4D3
:100BB0002B68236011210020FFF74AFF10E03B68FB
:100BC0004B4A93420CD1484B7A6803F128041546EE
:100BD0000FCD0FC42B68236012210020FFF738FFD0
:100BE0003B68DB6843F400523B68DA603B68DB68D3
:100BF0007A6812781A433B68DA603B681B697A6846
:100C0000127A1A433B681A613B68DB687A68527A49
:100C10001A433B68DA603B68DB687A68927A1A4369
:100C20003B68DA603B685B697A68D27A1A433B6852
:100C30005A613B682B4A934203D1FFF7E1FEF8600B
:100C400002E0FFF7C9FEF8607B685B681B01FA6889
:100C5000B2FBF3F31901FA6813469B0013449A00A0
:100C60001A447B685B689B00B2FBF3F27B685B68AD
:100C70001B01F868B0FBF3F3642000FB03F3D31A05
:100C80001B011C4AA2FB03235B0903F00F030B4368
:100C9000BB603B68BA689A607B681B7B002B1DD0E9
:100CA0003B68DB687A68127B1A433B68DA603B6812
:100CB0000C4A934203D12520FFF72CFE0EE03B683F
:100CC0000A4A934203D12620FFF724FE06E03B6840
:100CD000074A934202D12720FFF71CFE00BF1037BE
:100CE000BD46B0BD0038014068000020004400400F
:100CF000004800401F85EB5180B584B000AF78609C
:100D00007B682B4A934218D10623BB730123FB73E4
:100D10004FF40073BB8107F10C0319462548FFF718
:100D200051FD1023BB734FF48063BB8107F10C03AB
:100D300019462048FFF746FD36E07B681E4A93427D
:100D400016D10623BB730123FB730423BB8107F178
:100D50000C0319461748FFF735FD1023BB73082312
:100D6000BB8107F10C0319461248FFF72BFD1BE06E
:100D70007B68124A934217D10623BB730123FB738E
:100D80004FF48063BB8107F10C0319460C48FFF751
:100D900019FD1023BB734FF40063BB8107F10C03F3
:100DA00019460748FFF70EFD00BF1037BD4680BD4E
:100DB0000038014000080140004400400048004065
:100DC000000C014080B487B000AFF860B9601346F2
:100DD000FB710023FB75FB68104A934207D0FB6848
:100DE0000F4A934201D1012302E0022300E00023D5
:100DF000FB75FB79002B06D100BFFB681B6803F075
:100E00008003002BF9D0BB681B88DAB2FB685A60FC
:100E100000BF1C37BD4680BC704700BF0038014092
:100E20000044004080B500AF024B1B69984700BFEB
:100E300080BD00BF6800002080B500AF024B5B6A38
:100E4000984700BF80BD00BF6800002080B500AF9C
:100E5000024B9B6B984700BF80BD00BF680000201D
:100E600080B500AF02210120FFF7F2FD0321012030
:100E7000FFF7EEFD00210120FFF7EAFD00BF80BD76
:100E8000B0B58EB000AFFFF7EBFF4FF41653BB6267
:100E9000002387F82E30002387F82D30002387F8B1
:100EA0002C30002387F82F300C2387F824300023C0
:100EB0007B63002387F8303007F124030F4918467D
:100EC000FFF756FE0D48FFF717FF0D4B3C1D1D4663
:100ED0000FCD0FC495E80F0084E80F003B1D1846A6
:100EE000FFF762F93B1D19460648FFF73BFB00225E
:100EF00005490248FFF766FFF9E700BF00380140E7
:100F0000C40F0008C00F0008180000200D488546D7
:100F1000AFF300800C480D490D4A002302E0D4587D
:100F2000C4500433C4188C42F9D30A4A0A4C002333
:100F300001E013600432A242FBD300F011F8FFF786
:100F40009FFFFEE700280020000000201C0000207A
:100F5000EC0F00081C000020A8000020FEE70000A5
:100F600070B500250C4E0D4CA41BA410A54209D150
:100F700000F01AF800250A4E0A4CA41BA410A54242
:100F800005D170BD56F8253098470135EEE756F883
:100F9000253098470135F2E7E40F0008E40F000818
:100FA000E40F0008E80F0008F8B500BFF8BC08BC63
:100FB0009E467047F8B500BFF8BC08BC9E46704717
:100FC000686900000000000000080140000C0140BA
:100FD00001000200010002000400080010002000CF
:040FE000400080004D
:040FE40055010008AB
:040FE80031010008CB
:100FEC0000000000010203040000000000000000EB
:0C0FFC0001020304060708093861000028
:0400000508000F0DD3
:00000001FF
