:020000040000FA
:100000000C9463000C948B000C948B000C948B006C
:100010000C948B000C948B000C948B000C948B0034
:100020000C948B000C948B000C948B000C948B0024
:100030000C948B000C948B000C948B000C948B0014
:100040000C9433070C948B000C9401070C94DB0682
:100050000C948B000C948B000C948B000C948B00F4
:100060000C948B000C948B000000000025002800ED
:100070002B0000000000240027002A0000000000E0
:1000800023002600290004040404040404040202DA
:100090000202020203030303030301020408102007
:1000A0004080010204081020010204081020000012
:1000B0000008000201000003040700000000000027
:1000C00000007D07090A11241FBECFEFD8E0DEBF74
:1000D000CDBF21E0A4E2B1E001C01D92A63EB2076F
:1000E000E1F711E0A0E0B1E0E0EFF8E102C0059037
:1000F0000D92A432B107D9F710E0C2E6D0E004C0F7
:100100002197FE010E94730AC136D107C9F70E94E8
:10011000C2070C946B0C0C9400008CBD9DBD08951F
:10012000AF92BF92CF92DF92EF92FF920F931F9305
:10013000CF93DF936C017B018B01040F151FEB0143
:100140005E01AE18BF08C017D10759F06991D601FA
:10015000ED91FC910190F081E02DC6010995892B6C
:1001600079F7C501DF91CF911F910F91FF90EF902B
:10017000DF90CF90BF90AF900895FC01538D448DD8
:10018000252F30E0842F90E0821B930B541710F042
:10019000CF96089501970895FC01918D828D98174F
:1001A00061F0A28DAE0FBF2FB11D5D968C91928D27
:1001B0009F5F9F73928F90E008958FEF9FEF089558
:1001C000FC01918D828D981731F0828DE80FF11D21
:1001D000858D90E008958FEF9FEF0895FC01918D3C
:1001E000228D892F90E0805C9F4F821B91098F7335
:1001F000992708958FE291E00E94EE0021E0892B7B
:1002000009F420E0822F089580E090E0892B29F006
:100210000E94FA0081110C9400000895FC01A48D45
:10022000A80FB92FB11DA35ABF4F2C91848D90E018
:1002300001968F739927848FA689B7892C93A089FB
:10024000B1898C91837080648C93938D848D981385
:1002500006C00288F389E02D80818F7D8083089518
:10026000EF92FF920F931F93CF93DF93EC0181E006
:10027000888F9B8D8C8D98131AC0E889F9898081AD
:1002800085FF15C09FB7F894EE89FF896083E889E0
:10029000F98980818370806480839FBF81E090E0D2
:1002A000DF91CF911F910F91FF90EF900895F62E5F
:1002B0000B8D10E00F5F1F4F0F731127E02E8C8DF9
:1002C0008E110CC00FB607FCFACFE889F98980813E
:1002D00085FFF5CFCE010E940E01F1CFEB8DEC0F23
:1002E000FD2FF11DE35AFF4FF0829FB7F8940B8F5B
:1002F000EA89FB8980818062CFCFCF93DF93EC01C5
:10030000888D8823B9F0AA89BB89E889F9898C91FD
:1003100085FD03C0808186FD0DC00FB607FCF7CFB9
:100320008C9185FFF2CF808185FFEDCFCE010E94B9
:100330000E01E9CFDF91CF910895833081F028F449
:10034000813099F08230A9F008958730A9F0883083
:10035000C9F08430B1F4809180008F7D03C080911A
:1003600080008F7780938000089584B58F7784BD57
:10037000089584B58F7DFBCF8091B0008F778093F7
:10038000B00008958091B0008F7DF9CF1F93CF9377
:10039000DF93282F30E0F901E255FF4F8491F901F6
:1003A000E656FF4FD491F901EA57FF4FC491CC2391
:1003B000A9F0162F81110E949D01EC2FF0E0EE0FA5
:1003C000FF1FE859FF4FA591B4918FB7F894EC91B6
:1003D000111108C0D095DE23DC938FBFDF91CF9140
:1003E0001F910895DE2BF8CFCF93DF9390E0FC01AF
:1003F000E656FF4F24918A579F4FFC018491882332
:10040000D1F090E0880F991FFC01EE58FF4FA591A5
:10041000B491FC01E859FF4FC591D49161110EC010
:100420009FB7F8948C91E22FE0958E238C932881CE
:10043000E223E8839FBFDF91CF9108958FB7F894AF
:10044000EC91E22BEC938FBFF6CF3FB7F8948091FD
:10045000250190912601A0912701B091280126B590
:10046000A89B05C02F3F19F00196A11DB11D3FBFEC
:10047000BA2FA92F982F8827BC01CD01620F711DBB
:10048000811D911D42E0660F771F881F991F4A95B5
:10049000D1F708958F929F92AF92BF92CF92DF9241
:1004A000EF92FF920E9425024B015C0182E3C82E6D
:1004B000D12CE12CF12C0E942502681979098A09B6
:1004C0009B09683E734081059105A8F321E0C21A9B
:1004D000D108E108F10888EE880E83E0981EA11C7F
:1004E000B11CC114D104E104F10429F7FF90EF908D
:1004F000DF90CF90BF90AF909F908F900895BC01F8
:100500006E5F7F4FDC01ED91FC910190F081E02D59
:1005100040E0099591E0811190E0892F08950895B8
:100520008EBD00000DB407FEFDCF8EB50895DF929D
:10053000EF92FF920F931F93CF93DF937C01062FCF
:10054000D42E152F80E590E00E948D0060E0F70129
:1005500086850E94C60182E10E949002CD2DD12F96
:100560000C0F1D2F111DC017D10721F089910E947A
:100570009002F9CF61E0F7018685DF91CF911F915D
:100580000F91FF90EF90DF900C94C6011F93CF93D3
:10059000DF93EC01162F80E590E00E948D0060E073
:1005A0008E850E94C601812F80680E94900280E0A3
:1005B0000E949002182F61E08E850E94C601812F53
:1005C000DF91CF911F9108950F931F93CF93DF93E6
:1005D000EC01062F142F80E590E00E948D0060E072
:1005E0008E850E94C601802F0E949002812F0E945A
:1005F000900261E08E85DF91CF911F910F910C9455
:10060000C601CF92DF92EF92FF920F931F93CF9389
:10061000DF93EC016B01F42E890140E062E00E945F
:10062000E40244E06AE0CE010E94E40240E864E1B2
:10063000CE010E94E402A6016F2DCE010E94970216
:1006400043E062E0CE010E94E4028FB7F894C090CC
:100650002B01D0902C01E0902D01F0902E018FBF46
:1006600089E5C80ED11CE11CF11C6AE0CE010E9494
:10067000C60282FF1BC040E062E0CE010E94E4029D
:1006800064E4CE010E94C602F801808362E4CE01D8
:100690000E94C602F801818380E0DF91CF911F9113
:1006A0000F91FF90EF90DF90CF9008952FB7F894BF
:1006B00080912B0190912C01A0912D01B0912E01E0
:1006C0002FBF8C159D05AE05BF0578F283E0E5CF01
:1006D0002F923F924F925F926F927F928F929F9252
:1006E000AF92CF92DF92EF92FF920F931F93CF932F
:1006F000DF9300D0CDB7DEB74C012B01D42E3901EA
:1007000080E0E114F10411F0F70180813C2C329477
:1007100090EF3922380E40E062E0C4010E94E4020A
:100720004FE768E0C4010E94E40240E864E1C401CC
:100730000E94E402A2016D2DC4010E949702432D84
:100740006AE1C4010E94E4024CE062E0C4010E943C
:10075000E4026AE1C4010E94C602482F40686AE1CF
:10076000C4010E94E4028FB7F89420902B013090CE
:100770002C0140902D0150902E018FBFF4E22F0EDE
:10078000311C411C511C68E0C4010E94C602982F14
:10079000907309F0C0C080FF15C083E00F900F90E8
:1007A000DF91CF911F910F91FF90EF90DF90CF904D
:1007B000AF909F908F907F906F905F904F903F9001
:1007C0002F9008952FB7F89480912B0190912C01D0
:1007D000A0912D01B0912E012FBF82159305A40584
:1007E000B50588F2DACF6114710409F469C0011506
:1007F000110509F465C064E1C4010E94C602382EE7
:10080000F8018081831508F480C030823320E1F143
:1008100080E590E00E948D0060E0F40186850E94F2
:10082000C6013A9482E90E949002CC20B1F08FEF89
:1008300090E09C0102C0220F331FCA94E2F76901C5
:1008400082E90E9490029C2D9095F30120819223D1
:100850008C21982B9083CC24C39423014C0C511CE5
:10086000C31440F482E90E949002F20181932F01A7
:10087000C394F6CF80E00E949002F201808361E091
:10088000F40186850E94C60168E1C4010E94C60287
:100890008770E114F10411F0F701808323FC37C065
:1008A00061147104B1F10115110599F1AA2089F1C2
:1008B000F8014081413031F4843029F58FEF6ECF5B
:1008C00080E0ECCF4230F8F081111DC042509E0113
:1008D0002F5F3F4FB301C4010E94010381115ECF1E
:1008E000F8019081690E711CF30132972081998182
:1008F000291309C0F1E06F1A7108F30120819A8170
:10090000291709F44BCF87E049CF84E047CF82E035
:1009100045CF80E043CF6CE0C4010E94C602282E80
:10092000837109F460CF81E039CF0F931F93CF9388
:10093000DF938C01D62FC42F0E94C602C0954C2F86
:1009400048236D2FC801DF91CF911F910F910C9417
:10095000E4028F929F92AF92CF92EF92FF920F9309
:100960001F93CF93DF9300D000D01F92CDB7DEB797
:100970004C0182E08D8340E064E2C4010E94E40205
:1009800040E066E2C4010E94E40246E268E4C40179
:100990000E94E40286E28B838D818230B0F140E8D0
:1009A0006CE1C4010E94950487E08C83A12CC12CCA
:1009B000CE0104967C018E010B5F1F4F9E012F5FBD
:1009C0003F4F41E0BE016D5F7F4FC4010E9468034D
:1009D000982F811117C08D818230B9F48C818111DB
:1009E00014C081E00F900F900F900F900F90DF9147
:1009F000CF911F910F91FF90EF90CF90AF909F906C
:100A00008F90089581E0923069F380E0EBCF2F92D0
:100A10003F924F925F926F927F928F929F92AF928E
:100A2000BF92CF92DF92EF92FF920F931F93CF93DB
:100A3000DF93CDB7DEB72D970FB6F894DEBF0FBEAC
:100A4000CDBF16E0413508F045C1342E4B013C01C5
:100A500040E86CE10E94950483E98983332029F002
:100A600081E0F4019081953008F480E02224239401
:100A7000B12C9B2D990F990F990FD32CD91AD7FC14
:100A8000D12C32E0882319F098E89B8333E021E0F1
:100A90009D2D977009F420E09D2D95959595959540
:100AA000290FC9F094E0811193E0291708F4922FDF
:100AB000EB2DF0E03196E80DF91D232F4191A1E0D7
:100AC000B0E0AC0FBD1FA20FB11D4C932F5F422FA2
:100AD000431B491798F3882311F0F8E0DF0E8FE1EC
:100AE0008D150CF082C090E79A838B819C818927B9
:100AF0009D8189279E8189278F839E01285F3F4F93
:100B000047E0BE016F5F7F4FC3010E940103182FB2
:100B10008111E0C01A86E3E0EB87DC86CE01079600
:100B20002C0199E09D87CA844C2D4295407F4C0D45
:100B30006AE1C3010E94E402A12CCE010A967C0165
:100B40008E01055F1F4F92014D85BE016F5F7F4F84
:100B5000C3010E946803182F823009F065C06CE160
:100B6000C3010E94C60285FDB5C08F7109F480E201
:100B7000282F30E04D2DDD0C550B421753070CF09C
:100B80009DC0D82EE82FE595E595E595EF5F982F68
:100B9000977081E009F480E0E80F81E090E08C0F2D
:100BA0009D1F8E0F911DFC012150310927703327A5
:100BB00081E090E002C0880F991F2A95E2F79C011E
:100BC0008081822B80838BCF85E98983332031F02C
:100BD00081E0F4019081983008F04BCF80E049CF5C
:100BE00087E9898326E0B22EF9CF9D2D97709A87E9
:100BF0008D2D8595859585958E5F282F2295207F53
:100C0000290F2A8321E0911101C020E0280F2D87B0
:100C100044244394512C4C0E5D1E480E511CE9E0B7
:100C2000E81BEB87DC867FCF811154C080E2D82E91
:100C30009C8590320CF457CF8B81883809F040C0E6
:100C400083E093E0EB2DF0E03196E80DF91D980F6D
:100C5000A1E0B0E0AC0FBD1FA80FB11D2C912193F6
:100C60008F5F8913F5CFBB84E3E0BE124DC08A8548
:100C700081114AC09E012D5F3F4F41E0B201C30187
:100C80000E940103182F811125C09B81F2018181EF
:100C900098133CC09C818281981338C0808182FF68
:100CA00012C02394F2E02F1609F48ECF83E02816A9
:100CB00009F496CF91E0291609F4CECE15E00AC0CA
:100CC00082E094E0BFCFF4018387822D880F820DEC
:100CD0008F5F8083812F2D960FB6F894DEBF0FBEF5
:100CE000CDBFDF91CF911F910F91FF90EF90DF90DB
:100CF000CF90BF90AF909F908F907F906F905F90BC
:100D00004F903F902F90089511E0E4CF17E0E2CF8D
:100D10000F931F93CF93DF93EC0188819981009704
:100D200059F02A813B812617370730F081E0DF91A7
:100D3000CF911F910F9108958B016F5F7F4F0E949C
:100D40009E0B009759F0998388831B830A832C811B
:100D50003D81232B59F7FC011082E8CF80E0E7CFDB
:100D6000EF92FF920F931F93CF93DF93EC017B01E0
:100D70008A01BA010E94880628813981811114C034
:100D80002115310519F0C9010E94150B198218822D
:100D90001D821C821B821A82CE01DF91CF911F918E
:100DA0000F91FF90EF9008951D830C83B701C90147
:100DB0000E94640CF1CF1F920F920FB60F92112474
:100DC0002F933F934F935F936F937F938F939F9353
:100DD000AF93BF93EF93FF938FE291E00E940E01D8
:100DE000FF91EF91BF91AF919F918F917F916F9103
:100DF0005F914F913F912F910F900FBE0F901F90D9
:100E000018951F920F920FB60F9211242F938F9364
:100E10009F93EF93FF93E0913F01F0914001808118
:100E2000E0914501F091460182FD1BC090818091C7
:100E300048018F5F8F7320914901821741F0E09143
:100E40004801F0E0E15DFE4F958F80934801FF91EE
:100E5000EF919F918F912F910F900FBE0F901F9048
:100E600018958081F4CF1F920F920FB60F92112424
:100E70002F933F938F939F93AF93BF9380912B01B9
:100E800090912C01A0912D01B0912E01309124015F
:100E900023E0230F2D3758F50196A11DB11D209396
:100EA000240180932B0190932C01A0932D01B093EA
:100EB0002E018091250190912601A0912701B091EA
:100EC00028010196A11DB11D809325019093260153
:100ED000A0932701B0932801BF91AF919F918F916B
:100EE0003F912F910F900FBE0F901F90189526E8FD
:100EF000230F0296A11DB11DD2CFEFE2F1E01382C4
:100F0000128288EE93E0A0E0B0E084839583A6830C
:100F1000B7838AE091E09183808385EC90E09587A8
:100F2000848784EC90E09787868780EC90E0918BB3
:100F3000808B81EC90E0938B828B82EC90E0958BA0
:100F4000848B86EC90E0978B868B118E128E138E9D
:100F5000148EE2EDF1E08CE191E0918380838AE0F0
:100F6000868789E08787ECECF1E01182108213829A
:100F700012821582148250E040E063E271E0CF01FA
:100F80000C94B006CF93DF93CDB7DEB72F970FB693
:100F9000F894DEBF0FBECDBF789484B5826084BD67
:100FA00084B5816084BD85B5826085BD85B581606D
:100FB00085BD80916E00816080936E0010928100EB
:100FC00080918100826080938100809181008160A6
:100FD0008093810080918000816080938000809167
:100FE000B10084608093B1008091B00081608093F3
:100FF000B00080917A00846080937A0080917A00BA
:10100000826080937A0080917A00816080937A0078
:1010100080917A00806880937A001092C100E091FC
:101020003F01F091400182E08083E0913B01F0912B
:101030003C011082E0913D01F0913E018FEC8083F4
:1010400010924701E0914301F091440186E08083D2
:10105000E0914101F0914201808180618083E091C3
:101060004101F0914201808188608083E0914101DB
:10107000F0914201808180688083E0914101F0918C
:10108000420180818F7D80831FB7F8948091290170
:10109000811127C0E0E9F0E08491E4EAF0E0949166
:1010A000E82FF0E0EE0FFF1FEE58FF4FA591B4912F
:1010B000EC91E92321F461E08AE00E94C60161E03D
:1010C0008AE00E94F4018CB580618CBD8CB580648F
:1010D0008CBD61E08DE00E94F40161E08BE00E9434
:1010E000F401809129018F5F809329011FBF61E086
:1010F0008091E0010E94F40161E08091E0010E9492
:10110000C6018091E1018F3F09F413C160E00E94A4
:10111000F4012091E10130E0F901E255FF4F8491A3
:10112000F901E656FF4F0491F901EA57FF4F149178
:101130001111F0C061E08091E1010E94F40160E0D2
:101140008091E1010E94C60183E090E00197F1F7F0
:1011500061E08091E1010E94C6010E944A0240E0E4
:1011600064E282ED91E00E94E40240E066E282EDFA
:1011700091E00E94E40246E268E482ED91E00E9480
:10118000E40240E864E582ED91E00E94E40249EA6D
:1011900066E582ED91E00E94E40243E068E582EDBD
:1011A00091E00E94E40248EE6AE582ED91E00E943F
:1011B000E40240E46AE282ED91E00E94E4024DE341
:1011C00062E282ED91E00E94E40268E282ED91E049
:1011D0000E94C602982F9370933039F0482F4360D5
:1011E00068E282ED91E00E94E4020E944A02CE0190
:1011F00001964C0130E0632E30E0732E40E5D42E92
:1012000082ED91E00E94A904882309F4F6C082EDE2
:1012100091E00E947F02882309F4EFC002ED11E003
:101220002091D401C801825D91402817190609F068
:101230000CF492C0F8018381803100F5E090D00178
:10124000F090D101FFEFEF1AFF0AB7018CEC91E0AB
:101250000E948806882391F02091CC013091CD0125
:101260008091D0019091D10162E271E0820F931FD1
:101270000E94640CF092D101E092D001F8018381C8
:101280001B861A861D861C861F861E8640E1B401B9
:1012900090E00E94120AF40101900020E9F73197D2
:1012A000AF0148195909B401CE010A960E94B0064F
:1012B000AA84BB84A114B10451F1EE84FF84C5015A
:1012C000E114F10411F18091D0019091D101E80E67
:1012D000F91EB7018CEC91E00E948806882389F002
:1012E0002091CC013091CD018091D0019091D1011C
:1012F000B501820F931F0E94640CF092D101E0921D
:10130000D0018A859B85009711F00E94150B0F5F15
:101310001F4F86CF81110E949D01E12FF0E0EE0F5B
:10132000FF1FE458FF4FA591B491EC910E2309F4EF
:1013300001CF4FE062E082ED91E00E94E40213E011
:101340000E944A0262E082ED91E00E94C60284FFA0
:1013500006CF1150A9F703CF10E000E08091D4012F
:1013600090E0880F991F08171907F4F48091D001B5
:101370009091D1010817190730F4E091CC01F09158
:10138000CD01309771F410922A01EAE2F1E0608118
:101390008FE291E00E9430010E944A020F5F1F4FCE
:1013A000DDCFE00FF11FF3CF50E040E063E271E0EA
:1013B0008CEC91E00E94B006D9821A829E012D5FCA
:1013C0003F4F42E0B40182ED91E00E9401038111A0
:1013D0000EC0A12CC12CF12CE12C10E000E030E07B
:1013E00020E044E0B40182ED91E00E94680348E00F
:1013F00060E182ED91E00E9495046114710409F4AA
:10140000FFCE0E94FA00882309F4FACE0E94000061
:10141000F7CE8091CC019091CD01009711F00C9402
:10142000150B0895BB27FB015527AA27880F991F85
:10143000AA1FA41710F0A41B83955051B9F7A05D03
:10144000AA3308F0A95DA193009779F7B111B19380
:101450001192CB010C942C0ADC01FC01672F7191D5
:101460007723E1F7329704C07C916D93708362918A
:10147000AE17BF07C8F308952F923F924F925F9225
:101480006F927F928F929F92AF92BF92CF92DF9294
:10149000EF92FF920F931F93CF93DF93CDB7DEB7F9
:1014A000CA1BDB0B0FB6F894DEBF0FBECDBF09948D
:1014B0002A88398848885F846E847D848C849B84E4
:1014C000AA84B984C884DF80EE80FD800C811B81F2
:1014D000AA81B981CE0FD11D0FB6F894DEBF0FBE21
:1014E000CDBFED010895EE0FFF1F0590F491E02DA3
:1014F00009940F931F93CF93DF938230910510F4DB
:1015000082E090E0E091E401F091E50130E020E03C
:10151000B0E0A0E0309799F42115310509F44AC0F4
:10152000281B390B24303105D8F58A819B81611540
:10153000710589F1FB0193838283FE0111C0408113
:1015400051810281138148175907E0F04817590764
:1015500099F4109761F012960C93129713961C93BE
:101560003296CF01DF91CF911F910F910895009393
:10157000E4011093E501F4CF2115310551F0421734
:10158000530738F0A901DB019A01BD01DF01F80121
:10159000C1CFEF01F9CF9093E5018093E401CDCF66
:1015A000FE01E20FF31F8193919322503109398399
:1015B0002883D7CF2091E2013091E301232B41F41E
:1015C00020910201309103013093E3012093E20165
:1015D00020910001309101012115310541F42DB711
:1015E0003EB74091040150910501241B350BE09159
:1015F000E201F091E301E217F307A0F42E1B3F0B89
:101600002817390778F0AC014E5F5F4F2417350774
:1016100048F04E0F5F1F5093E3014093E201819326
:1016200091939FCFF0E0E0E09CCFCF93DF930097C2
:10163000E9F0FC01329713821282A091E401B0918B
:10164000E501ED0130E020E01097A1F42081318127
:10165000820F931F2091E2013091E301281739078F
:1016600009F061C0F093E301E093E201DF91CF91D3
:101670000895EA01CE17DF07E8F54A815B819E01F4
:1016800041155105B1F7E901FB83EA83499159916D
:10169000C40FD51FEC17FD0761F48081918102967C
:1016A000840F951FE90199838883828193819B83AD
:1016B0008A83F0E0E0E012968D919C911397009759
:1016C000B9F52D913C911197CD010296820F931F90
:1016D0002091E2013091E3012817390739F630975C
:1016E00051F51092E5011092E401B093E301A0934B
:1016F000E201BCCFD383C28340815181840F951F07
:10170000C817D90761F44E5F5F4F88819981480FF0
:10171000591F518340838A819B8193838283211542
:10172000310509F0B0CFF093E501E093E4019ECFDD
:10173000FD01DC01C0CF13821282D7CFB0E0A0E060
:10174000E4EAFBE00C943E0A8C01009751F4CB01D3
:101750000E94790A8C01C801CDB7DEB7E0E10C9494
:101760005A0AFC01E60FF71F9C0122503109E217CB
:10177000F30708F49DC0D901CD91DC911197C617EC
:10178000D70798F0C530D10530F3CE0104978617FE
:10179000970708F3C61BD70B2297C193D1936D937C
:1017A0007C93CF010E94150BD6CF5B01AC1ABD0A0A
:1017B0004C018C0E9D1EA091E401B091E501512CCD
:1017C000412CF12CE12C109731F58091E2019091A0
:1017D000E3018815990509F05CC04616570608F024
:1017E00058C08091000190910101009741F48DB79C
:1017F0009EB74091040150910501841B950BE81799
:10180000F90708F055C0F093E301E093E201F90114
:1018100071836083A0CF8D919C91119712966C90EB
:10182000129713967C901397A815B90559F56C017A
:1018300042E0C40ED11CCA14DB0420F1AC014A19E9
:101840005B09DA011296159780F0628273825183E8
:101850004083D9016D937C93E114F10471F0D701B9
:101860001396FC93EE93129776CF22968C0F9D1FC2
:10187000F90191838083F301EFCFF093E501E093C9
:10188000E40169CF4816590608F42C017D01D30103
:101890009ACFCB010E94790A7C01009749F0AE01F2
:1018A000B8010E945B0CC8010E94150B870153CF41
:1018B00010E000E050CFFB01DC0102C001900D926E
:1018C00041505040D8F70895FB01DC0101900D9282
:1018D0000020E1F7089510E0C2E6D0E004C0FE0168
:1018E0000E94730A2196C336D107C9F7F894FFCF37
:1018F0000000E60180000000000030019000BD0003
:101900007D01EE00CC00E000000000000705A90406
:041910007F02300022
:107E0000112484B714BE81FFF0D085E080938100F7
:107E100082E08093C00088E18093C10086E0809377
:107E2000C20080E18093C4008EE0C9D0259A86E02C
:107E300020E33CEF91E0309385002093840096BBD3
:107E4000B09BFECF1D9AA8958150A9F7CC24DD24C4
:107E500088248394B5E0AB2EA1E19A2EF3E0BF2EE7
:107E6000A2D0813461F49FD0082FAFD0023811F036
:107E7000013811F484E001C083E08DD089C08234E0
:107E800011F484E103C0853419F485E0A6D080C0E4
:107E9000853579F488D0E82EFF2485D0082F10E0AE
:107EA000102F00270E291F29000F111F8ED06801E7
:107EB0006FC0863521F484E090D080E0DECF843638
:107EC00009F040C070D06FD0082F6DD080E0C81688
:107ED00080E7D80618F4F601B7BEE895C0E0D1E017
:107EE00062D089930C17E1F7F0E0CF16F0E7DF06D8
:107EF00018F0F601B7BEE89568D007B600FCFDCFD4
:107F0000A601A0E0B1E02C9130E011968C91119780
:107F100090E0982F8827822B932B1296FA010C0160
:107F200087BEE89511244E5F5F4FF1E0A038BF0790
:107F300051F7F601A7BEE89507B600FCFDCF97BE46
:107F4000E89526C08437B1F42ED02DD0F82E2BD052
:107F50003CD0F601EF2C8F010F5F1F4F84911BD097
:107F6000EA94F801C1F70894C11CD11CFA94CF0C13
:107F7000D11C0EC0853739F428D08EE10CD085E9AC
:107F80000AD08FE07ACF813511F488E018D01DD067
:107F900080E101D065CF982F8091C00085FFFCCF94
:107FA0009093C60008958091C00087FFFCCF809118
:107FB000C00084FD01C0A8958091C6000895E0E648
:107FC000F0E098E1908380830895EDDF803219F02E
:107FD00088E0F5DFFFCF84E1DECF1F93182FE3DFCA
:107FE0001150E9F7F2DF1F91089580E0E8DFEE27F6
:047FF000FF270994CA
:027FFE00040479
:00000001FF
