:100000000C9436000C945E000C945E000C945E0020
:100010000C945E000C945E000C945E000C945E00E8
:100020000C945E000C945E000C945E000C945E00D8
:100030000C945E000C945E000C945E000C945E00C8
:100040000C9444020C945E000C9412020C94EC018B
:100050000C945E000C945E000C945E000C945E00A8
:100060000C945E000C945E008E023A0411241FBEB4
:10007000CFEFD8E0DEBFCDBF21E0A6E2B1E001C006
:100080001D92A73DB207E1F711E0A0E0B1E0E2E583
:10009000FDE002C005900D92A632B107D9F710E03D
:1000A000C5E3D0E004C02197FE010E94A404C4333C
:1000B000D107C9F70E9406030C949C060C9400001B
:1000C000AF92BF92CF92DF92EF92FF920F931F9366
:1000D000CF93DF936C017B018B01040F151FEB01A4
:1000E0005E01AE18BF08C017D10759F06991D6015B
:1000F000ED91FC910190F081E02DC6010995892BCD
:1001000079F7C501DF91CF911F910F91FF90EF908B
:10011000DF90CF90BF90AF900895FC01538D448D38
:10012000252F30E0842F90E0821B930B541710F0A2
:10013000CF96089501970895FC01918D828D9817AF
:1001400061F0A28DAE0FBF2FB11D5D968C91928D87
:100150009F5F9F73928F90E008958FEF9FEF0895B8
:10016000FC01918D828D981731F0828DE80FF11D81
:10017000858D90E008958FEF9FEF0895FC01918D9C
:10018000228D892F90E0805C9F4F821B91098F7395
:100190009927089580E391E00E94BE0021E0892B19
:1001A00009F420E0822F089580E090E0892B29F067
:1001B0000E94CA0081110C9400000895FC01A48DD6
:1001C000A80FB92FB11DA35ABF4F2C91848D90E079
:1001D00001968F739927848FA689B7892C93A0895C
:1001E000B1898C91837080648C93938D848D9813E6
:1001F00006C00288F389E02D80818F7D8083089579
:10020000EF92FF920F931F93CF93DF93EC0181E066
:10021000888F9B8D8C8D98131AC0E889F98980810D
:1002200085FF15C09FB7F894EE89FF896083E88940
:10023000F98980818370806480839FBF81E090E032
:10024000DF91CF911F910F91FF90EF900895F62EBF
:100250000B8D10E00F5F1F4F0F731127E02E8C8D59
:100260008E110CC00FB607FCFACFE889F98980819E
:1002700085FFF5CFCE010E94DE00F1CFEB8DEC0FB4
:10028000FD2FF11DE35AFF4FF0829FB7F8940B8FBB
:10029000EA89FB8980818062CFCFCF93DF93EC0125
:1002A000888D8823B9F0AA89BB89E889F9898C915E
:1002B00085FD03C0808186FD0DC00FB607FCF7CF1A
:1002C0008C9185FFF2CF808185FFEDCFCE010E941A
:1002D000DE00E9CFDF91CF9108953FB7F894809188
:1002E0002B0190912C01A0912D01B0912E0126B5EA
:1002F000A89B05C02F3F19F00196A11DB11D3FBF5E
:10030000BA2FA92F982F8827BC01CD01620F711D2C
:10031000811D911D42E0660F771F881F991F4A9526
:10032000D1F708958F929F92AF92BF92CF92DF92B2
:10033000EF92FF924B015C010E946D016B017C0109
:100340000E946D016C197D098E099F09683E7340FA
:1003500081059105A8F321E0821A9108A108B1084E
:1003600088EEC80E83E0D81EE11CF11C81149104B4
:10037000A104B10429F7FF90EF90DF90CF90BF90D8
:10038000AF909F908F9008950F931F93CF93DF931B
:10039000EC0188819981009759F02A813B812617C9
:1003A000370730F081E0DF91CF911F910F910895D1
:1003B0008B016F5F7F4F0E94CF05009759F09983A3
:1003C00088831B830A832C813D81232B59F7FC01F1
:1003D0001082E8CF80E0E7CF1F920F920FB60F9206
:1003E00011242F933F934F935F936F937F938F933A
:1003F0009F93AF93BF93EF93FF9380E391E00E94AD
:10040000DE00FF91EF91BF91AF919F918F917F910E
:100410006F915F914F913F912F910F900FBE0F9071
:100420001F9018951F920F920FB60F9211242F93C1
:100430008F939F93EF93FF93E0914001F0914101DF
:100440008081E0914601F091470182FD1BC09081BF
:10045000809149018F5F8F7320914A01821741F08B
:10046000E0914901F0E0E05DFE4F958F80934901F6
:10047000FF91EF919F918F912F910F900FBE0F9051
:100480001F9018958081F4CF1F920F920FB60F9294
:1004900011242F933F938F939F93AF93BF9380919A
:1004A000270190912801A0912901B0912A01309152
:1004B000260123E0230F2D3758F50196A11DB11D0C
:1004C000209326018093270190932801A09329016E
:1004D000B0932A0180912B0190912C01A0912D01C4
:1004E000B0912E010196A11DB11D80932B01909317
:1004F0002C01A0932D01B0932E01BF91AF919F913C
:100500008F913F912F910F900FBE0F901F901895D4
:1005100026E8230F0296A11DB11DD2CF1092330100
:100520001092320188EE93E0A0E0B0E080933401B5
:1005300090933501A0933601B09337018EE091E09E
:10054000909331018093300185EC90E090933D01D0
:1005500080933C0184EC90E090933F0180933E01B6
:1005600080EC90E0909341018093400181EC90E019
:10057000909343018093420182EC90E09093450177
:100580008093440186EC90E090934701809346016C
:100590001092490110924A0110924B0110924C01A5
:1005A0001092CE011092CD011092D0011092CF0185
:1005B0001092D2011092D10168E070E08DEC91E0D0
:1005C0000E94C4012091CD013091CE01811113C050
:1005D0002115310519F0C9010E9446051092CE017E
:1005E0001092CD011092D2011092D1011092D0013F
:1005F0001092CF01089588E090E09093D20180930B
:10060000D1016CE171E0C9010C949506CF93DF93A1
:10061000CDB7DEB72F970FB6F894DEBF0FBECDBFB4
:10062000789484B5826084BD84B5816084BD85B5CD
:10063000826085BD85B5816085BD80916E008160D9
:1006400080936E001092810080918100826080937F
:100650008100809181008160809381008091800081
:100660008160809380008091B10084608093B100AC
:100670008091B00081608093B00080917A008460A6
:1006800080937A0080917A00826080937A008091D2
:100690007A00816080937A0080917A0080688093EC
:1006A0007A001092C100E0914001F091410182E096
:1006B0008083E0913C01F0913D011082E0913E0188
:1006C000F0913F018FEC808310924801E09144014A
:1006D000F091450186E08083E0914201F091430171
:1006E000808180618083E0914201F09143018081AB
:1006F00088608083E0914201F091430180818068AD
:100700008083E0914201F091430180818F7D80835D
:1007100068EE73E080E090E00E949201CE010196C5
:100720007C0190E0A92E90E0B92E86E0C82E81E0F1
:10073000D82E9AE0C91691E0D90609F463C0F601F3
:1007400081916F011B861A861D861C861F861E8658
:1007500040E1B70190E00E944304F70101900020BE
:10076000E9F731978F010E191F09B801CE010A96DA
:100770000E94C4012A853B8581113DC021153105A8
:1007800019F0C9010E9446051B861A861F861E861F
:100790001D861C860A851B850115110551F28E8464
:1007A0009F84C8018114910419F18091D101909125
:1007B000D201880E991EB4018DEC91E00E94C40113
:1007C000882389F02091CD013091CE018091D10113
:1007D0009091D201B801820F931F0E9495069092CA
:1007E000D2018092D1018A859B85009709F4A1CF1F
:1007F0000E9446059ECF1F870E87B701C9010E9440
:100800009506C8CF10E000E08091D1019091D2010F
:100810000817190730F4E091CD01F091CE0130971F
:1008200031F510922F01EFE2F1E0608180E391E079
:100830000E94000166E970E080E090E00E94920171
:100840000F5F1F4F08301105F9F668EE73E080E086
:1008500090E00E949201A114B10409F466CF0E94B5
:10086000CA00882309F461CF0E9400005ECFE00F28
:10087000F11FDBCF8091CD019091CE01009711F057
:100880000C9446050895BB27FB015527AA27880F1E
:10089000991FAA1FA41710F0A41B83955051B9F7F4
:1008A000A05DAA3308F0A95DA193009779F7B11173
:1008B000B1931192CB010C945D04DC01FC01672F14
:1008C00071917723E1F7329704C07C916D93708327
:1008D0006291AE17BF07C8F308952F923F924F92CF
:1008E0005F926F927F928F929F92AF92BF92CF92C0
:1008F000DF92EF92FF920F931F93CF93DF93CDB7C9
:10090000DEB7CA1BDB0B0FB6F894DEBF0FBECDBF40
:1009100009942A88398848885F846E847D848C8411
:100920009B84AA84B984C884DF80EE80FD800C811A
:100930001B81AA81B981CE0FD11D0FB6F894DEBFFD
:100940000FBECDBFED010895EE0FFF1F0590F4918E
:10095000E02D09940F931F93CF93DF93823091057D
:1009600010F482E090E0E091D501F091D60130E002
:1009700020E0B0E0A0E0309799F42115310509F4AA
:100980004AC0281B390B24303105D8F58A819B8158
:100990006115710589F1FB0193838283FE0111C00A
:1009A000408151810281138148175907E0F04817AF
:1009B000590799F4109761F012960C9312971396B9
:1009C0001C933296CF01DF91CF911F910F91089523
:1009D0000093D5011093D601F4CF2115310551F0C4
:1009E0004217530738F0A901DB019A01BD01DF016D
:1009F000F801C1CFEF01F9CF9093D6018093D501D3
:100A0000CDCFFE01E20FF31F819391932250310964
:100A100039832883D7CF2091D3013091D401232B60
:100A200041F420910201309103013093D4012093CD
:100A3000D30120910001309101012115310541F4CC
:100A40002DB73EB74091040150910501241B350B91
:100A5000E091D301F091D401E217F307A0F42E1B2B
:100A60003F0B2817390778F0AC014E5F5F4F241712
:100A7000350748F04E0F5F1F5093D4014093D301C8
:100A8000819391939FCFF0E0E0E09CCFCF93DF93F1
:100A90000097E9F0FC01329713821282A091D501F0
:100AA000B091D601ED0130E020E01097A1F4208153
:100AB0003181820F931F2091D3013091D4012817E7
:100AC000390709F061C0F093D401E093D301DF91BD
:100AD000CF910895EA01CE17DF07E8F54A815B81DF
:100AE0009E0141155105B1F7E901FB83EA83499164
:100AF0005991C40FD51FEC17FD0761F480819181D6
:100B00000296840F951FE9019983888382819381DE
:100B10009B838A83F0E0E0E012968D919C9113977D
:100B20000097B9F52D913C911197CD010296820F56
:100B3000931F2091D3013091D4012817390739F63A
:100B4000309751F51092D6011092D501B093D4018F
:100B5000A093D301BCCFD383C28340815181840F42
:100B6000951FC817D90761F44E5F5F4F888199813F
:100B7000480F591F518340838A819B8193838283CD
:100B80002115310509F0B0CFF093D601E093D501DE
:100B90009ECFFD01DC01C0CF13821282D7CFB0E01F
:100BA000A0E0E5EDF5E00C946F048C01009751F4A2
:100BB000CB010E94AA048C01C801CDB7DEB7E0E1E9
:100BC0000C948B04FC01E60FF71F9C0122503109A5
:100BD000E217F30708F49DC0D901CD91DC9111977C
:100BE000C617D70798F0C530D10530F3CE0104976A
:100BF0008617970708F3C61BD70B2297C193D1938B
:100C00006D937C93CF010E944605D6CF5B01AC1A51
:100C1000BD0A4C018C0E9D1EA091D501B091D6014C
:100C2000512C412CF12CE12C109731F58091D301FE
:100C30009091D4018815990509F05CC046165706B5
:100C400008F058C08091000190910101009741F493
:100C50008DB79EB74091040150910501841B950BFF
:100C6000E817F90708F055C0F093D401E093D301D9
:100C7000F90171836083A0CF8D919C911197129699
:100C80006C90129713967C901397A815B90559F597
:100C90006C0142E0C40ED11CCA14DB0420F1AC018B
:100CA0004A195B09DA011296159780F06282738205
:100CB00051834083D9016D937C93E114F10471F069
:100CC000D7011396FC93EE93129776CF22968C0F52
:100CD0009D1FF90191838083F301EFCFF093D6013B
:100CE000E093D50169CF4816590608F42C017D011F
:100CF000D3019ACFCB010E94AA047C01009749F04E
:100D0000AE01B8010E948C06C8010E944605870109
:100D100053CF10E000E050CFFB01DC0102C0019096
:100D20000D9241505040D8F70895FB01DC0101902D
:100D30000D920020E1F7089510E0C5E3D0E004C073
:100D4000FE010E94A4042196C633D107C9F7F89486
:020D5000FFCFD3
:100D52000000D70180000109231F000000000001EC
:100D620060008D004D01BE009C00B000353366333B
:060D7200303231310000B7
:00000001FF
